{
  "_format": "hh-sol-artifact-1",
  "contractName": "FeeManager",
  "sourceName": "contracts/FeeManager.sol",
  "abi": [
    {
      "inputs": [
        {
          "internalType": "address",
          "name": "_governanceToken",
          "type": "address"
        }
      ],
      "stateMutability": "nonpayable",
      "type": "constructor"
    },
    {
      "anonymous": false,
      "inputs": [
        {
          "indexed": false,
          "internalType": "uint256",
          "name": "baseFee",
          "type": "uint256"
        },
        {
          "indexed": false,
          "internalType": "uint256",
          "name": "variableRate",
          "type": "uint256"
        },
        {
          "indexed": false,
          "internalType": "uint256",
          "name": "timestamp",
          "type": "uint256"
        }
      ],
      "name": "FeeUpdated",
      "type": "event"
    },
    {
      "anonymous": false,
      "inputs": [
        {
          "indexed": false,
          "internalType": "uint256",
          "name": "amount",
          "type": "uint256"
        },
        {
          "indexed": false,
          "internalType": "uint256",
          "name": "treasury",
          "type": "uint256"
        },
        {
          "indexed": false,
          "internalType": "uint256",
          "name": "staking",
          "type": "uint256"
        },
        {
          "indexed": false,
          "internalType": "uint256",
          "name": "community",
          "type": "uint256"
        }
      ],
      "name": "FeesDistributed",
      "type": "event"
    },
    {
      "inputs": [],
      "name": "allocation",
      "outputs": [
        {
          "internalType": "uint256",
          "name": "treasuryPercent",
          "type": "uint256"
        },
        {
          "internalType": "uint256",
          "name": "stakingPercent",
          "type": "uint256"
        },
        {
          "internalType": "uint256",
          "name": "communityPercent",
          "type": "uint256"
        },
        {
          "internalType": "uint256",
          "name": "lastDistribution",
          "type": "uint256"
        }
      ],
      "stateMutability": "view",
      "type": "function"
    },
    {
      "inputs": [
        {
          "internalType": "uint256",
          "name": "totalFee",
          "type": "uint256"
        }
      ],
      "name": "calculateDistribution",
      "outputs": [
        {
          "internalType": "uint256",
          "name": "treasuryAmount",
          "type": "uint256"
        },
        {
          "internalType": "uint256",
          "name": "stakingAmount",
          "type": "uint256"
        },
        {
          "internalType": "uint256",
          "name": "communityAmount",
          "type": "uint256"
        }
      ],
      "stateMutability": "view",
      "type": "function"
    },
    {
      "inputs": [
        {
          "internalType": "uint256",
          "name": "amount",
          "type": "uint256"
        },
        {
          "internalType": "uint256",
          "name": "volume",
          "type": "uint256"
        }
      ],
      "name": "calculateFee",
      "outputs": [
        {
          "internalType": "uint256",
          "name": "",
          "type": "uint256"
        }
      ],
      "stateMutability": "view",
      "type": "function"
    },
    {
      "inputs": [
        {
          "internalType": "string",
          "name": "description",
          "type": "string"
        },
        {
          "internalType": "uint256",
          "name": "newBaseFee",
          "type": "uint256"
        },
        {
          "internalType": "uint256",
          "name": "newVariableRate",
          "type": "uint256"
        }
      ],
      "name": "createProposal",
      "outputs": [],
      "stateMutability": "nonpayable",
      "type": "function"
    },
    {
      "inputs": [],
      "name": "currentFee",
      "outputs": [
        {
          "internalType": "uint256",
          "name": "baseFee",
          "type": "uint256"
        },
        {
          "internalType": "uint256",
          "name": "variableRate",
          "type": "uint256"
        },
        {
          "internalType": "uint256",
          "name": "discountThreshold",
          "type": "uint256"
        },
        {
          "internalType": "uint256",
          "name": "discountRate",
          "type": "uint256"
        },
        {
          "internalType": "uint256",
          "name": "timestamp",
          "type": "uint256"
        }
      ],
      "stateMutability": "view",
      "type": "function"
    },
    {
      "inputs": [
        {
          "internalType": "uint256",
          "name": "totalFee",
          "type": "uint256"
        }
      ],
      "name": "distributeFees",
      "outputs": [],
      "stateMutability": "nonpayable",
      "type": "function"
    },
    {
      "inputs": [],
      "name": "getCurrentFee",
      "outputs": [
        {
          "internalType": "uint256",
          "name": "baseFee",
          "type": "uint256"
        },
        {
          "internalType": "uint256",
          "name": "variableRate",
          "type": "uint256"
        },
        {
          "internalType": "uint256",
          "name": "discountThreshold",
          "type": "uint256"
        },
        {
          "internalType": "uint256",
          "name": "discountRate",
          "type": "uint256"
        }
      ],
      "stateMutability": "view",
      "type": "function"
    },
    {
      "inputs": [],
      "name": "governanceToken",
      "outputs": [
        {
          "internalType": "address",
          "name": "",
          "type": "address"
        }
      ],
      "stateMutability": "view",
      "type": "function"
    }
  ],
  "bytecode": "0x608060405234801561001057600080fd5b5060405161060038038061060083398101604081905261002f916100d3565b600980546001600160a01b0319166001600160a01b03929092169190911790556040805160a081018252606480825260c8602080840182905261271084860181905260966060808701829052426080978801819052600096909655600194909455600291909155600355600483905584519384018552603c808552601491850182905294840181905292018190526005929092556006819055600755600855610103565b6000602082840312156100e557600080fd5b81516001600160a01b03811681146100fc57600080fd5b9392505050565b6104ee806101126000396000f3fe608060405234801561001057600080fd5b50600436106100885760003560e01c8063a9339d7e1161005b578063a9339d7e14610111578063da3c300d1461013f578063f70d936214610181578063f96dae0a1461019257600080fd5b806322e2e12d1461008d57806334e73122146100a25780636029bf9f146100c857806388a17bde146100db575b600080fd5b6100a061009b366004610357565b6101bd565b005b6100b56100b036600461041b565b610212565b6040519081526020015b60405180910390f35b6100a06100d636600461043d565b610275565b6005546006546007546008546100f19392919084565b6040805194855260208501939093529183015260608201526080016100bf565b61012461011f36600461043d565b6102dd565b604080519384526020840192909252908201526060016100bf565b600054600154600254600354600454610159949392919085565b604080519586526020860194909452928401919091526060830152608082015260a0016100bf565b6000546001546002546003546100f1565b6009546101a5906001600160a01b031681565b6040516001600160a01b0390911681526020016100bf565b60008290556001819055426004819055604080518481526020810184905280820192909252517f509d432c4ab40e3eb039ee95fea93be8de6c751efa87aed5e51c7202b0dd8e099181900360600190a1505050565b60008061271060006001015484610229919061046c565b6102339190610483565b600254909150831061025d5760035461271090610250908561046c565b61025a9190610483565b90505b60005461026b9082906104a5565b9150505b92915050565b6000806000610283846102dd565b60408051888152602081018590529081018390526060810182905292955090935091507f78490b24a020086d2701460dc169a540280c517bef9cdcd742f751a9099922a39060800160405180910390a15050426008555050565b60008060006064600560000154856102f5919061046c565b6102ff9190610483565b600654909350606490610312908661046c565b61031c9190610483565b60075490925060649061032f908661046c565b6103399190610483565b929491935050565b634e487b7160e01b600052604160045260246000fd5b60008060006060848603121561036c57600080fd5b833567ffffffffffffffff8082111561038457600080fd5b818601915086601f83011261039857600080fd5b8135818111156103aa576103aa610341565b604051601f8201601f19908116603f011681019083821181831017156103d2576103d2610341565b816040528281528960208487010111156103eb57600080fd5b82602086016020830137600060208483010152809750505050505060208401359150604084013590509250925092565b6000806040838503121561042e57600080fd5b50508035926020909101359150565b60006020828403121561044f57600080fd5b5035919050565b634e487b7160e01b600052601160045260246000fd5b808202811582820484141761026f5761026f610456565b6000826104a057634e487b7160e01b600052601260045260246000fd5b500490565b8082018082111561026f5761026f61045656fea26469706673582212202888252e9c48192ac6a4dc95f6935689555ab080e7eae2c864b8a5fc505e69be64736f6c63430008130033",
  "linkReferences": {},
  "deployedLinkReferences": {}
}